{
  "_format": "hh-sol-artifact-1",
  "contractName": "NFTen",
  "sourceName": "contracts/NFTen.sol",
  "abi": [
    {
      "inputs": [],
      "stateMutability": "nonpayable",
      "type": "constructor"
    },
    {
      "anonymous": false,
      "inputs": [
        {
          "indexed": true,
          "internalType": "address",
          "name": "owner",
          "type": "address"
        },
        {
          "indexed": true,
          "internalType": "address",
          "name": "approved",
          "type": "address"
        },
        {
          "indexed": true,
          "internalType": "uint256",
          "name": "tokenId",
          "type": "uint256"
        }
      ],
      "name": "Approval",
      "type": "event"
    },
    {
      "anonymous": false,
      "inputs": [
        {
          "indexed": true,
          "internalType": "address",
          "name": "owner",
          "type": "address"
        },
        {
          "indexed": true,
          "internalType": "address",
          "name": "operator",
          "type": "address"
        },
        {
          "indexed": false,
          "internalType": "bool",
          "name": "approved",
          "type": "bool"
        }
      ],
      "name": "ApprovalForAll",
      "type": "event"
    },
    {
      "anonymous": false,
      "inputs": [
        {
          "indexed": true,
          "internalType": "bytes32",
          "name": "role",
          "type": "bytes32"
        },
        {
          "indexed": true,
          "internalType": "bytes32",
          "name": "previousAdminRole",
          "type": "bytes32"
        },
        {
          "indexed": true,
          "internalType": "bytes32",
          "name": "newAdminRole",
          "type": "bytes32"
        }
      ],
      "name": "RoleAdminChanged",
      "type": "event"
    },
    {
      "anonymous": false,
      "inputs": [
        {
          "indexed": true,
          "internalType": "bytes32",
          "name": "role",
          "type": "bytes32"
        },
        {
          "indexed": true,
          "internalType": "address",
          "name": "account",
          "type": "address"
        },
        {
          "indexed": true,
          "internalType": "address",
          "name": "sender",
          "type": "address"
        }
      ],
      "name": "RoleGranted",
      "type": "event"
    },
    {
      "anonymous": false,
      "inputs": [
        {
          "indexed": true,
          "internalType": "bytes32",
          "name": "role",
          "type": "bytes32"
        },
        {
          "indexed": true,
          "internalType": "address",
          "name": "account",
          "type": "address"
        },
        {
          "indexed": true,
          "internalType": "address",
          "name": "sender",
          "type": "address"
        }
      ],
      "name": "RoleRevoked",
      "type": "event"
    },
    {
      "anonymous": false,
      "inputs": [
        {
          "indexed": true,
          "internalType": "address",
          "name": "from",
          "type": "address"
        },
        {
          "indexed": true,
          "internalType": "address",
          "name": "to",
          "type": "address"
        },
        {
          "indexed": true,
          "internalType": "uint256",
          "name": "tokenId",
          "type": "uint256"
        }
      ],
      "name": "Transfer",
      "type": "event"
    },
    {
      "inputs": [],
      "name": "DEFAULT_ADMIN_ROLE",
      "outputs": [
        {
          "internalType": "bytes32",
          "name": "",
          "type": "bytes32"
        }
      ],
      "stateMutability": "view",
      "type": "function"
    },
    {
      "inputs": [],
      "name": "MINTER_ROLE",
      "outputs": [
        {
          "internalType": "bytes32",
          "name": "",
          "type": "bytes32"
        }
      ],
      "stateMutability": "view",
      "type": "function"
    },
    {
      "inputs": [
        {
          "internalType": "address",
          "name": "to",
          "type": "address"
        },
        {
          "internalType": "uint256",
          "name": "tokenId",
          "type": "uint256"
        }
      ],
      "name": "approve",
      "outputs": [],
      "stateMutability": "nonpayable",
      "type": "function"
    },
    {
      "inputs": [
        {
          "internalType": "address",
          "name": "owner",
          "type": "address"
        }
      ],
      "name": "balanceOf",
      "outputs": [
        {
          "internalType": "uint256",
          "name": "",
          "type": "uint256"
        }
      ],
      "stateMutability": "view",
      "type": "function"
    },
    {
      "inputs": [
        {
          "internalType": "uint256",
          "name": "tokenId",
          "type": "uint256"
        }
      ],
      "name": "burn",
      "outputs": [],
      "stateMutability": "nonpayable",
      "type": "function"
    },
    {
      "inputs": [
        {
          "internalType": "uint256",
          "name": "tokenId",
          "type": "uint256"
        }
      ],
      "name": "getApproved",
      "outputs": [
        {
          "internalType": "address",
          "name": "",
          "type": "address"
        }
      ],
      "stateMutability": "view",
      "type": "function"
    },
    {
      "inputs": [
        {
          "internalType": "bytes32",
          "name": "role",
          "type": "bytes32"
        }
      ],
      "name": "getRoleAdmin",
      "outputs": [
        {
          "internalType": "bytes32",
          "name": "",
          "type": "bytes32"
        }
      ],
      "stateMutability": "view",
      "type": "function"
    },
    {
      "inputs": [
        {
          "internalType": "bytes32",
          "name": "role",
          "type": "bytes32"
        },
        {
          "internalType": "address",
          "name": "account",
          "type": "address"
        }
      ],
      "name": "grantRole",
      "outputs": [],
      "stateMutability": "nonpayable",
      "type": "function"
    },
    {
      "inputs": [
        {
          "internalType": "bytes32",
          "name": "role",
          "type": "bytes32"
        },
        {
          "internalType": "address",
          "name": "account",
          "type": "address"
        }
      ],
      "name": "hasRole",
      "outputs": [
        {
          "internalType": "bool",
          "name": "",
          "type": "bool"
        }
      ],
      "stateMutability": "view",
      "type": "function"
    },
    {
      "inputs": [
        {
          "internalType": "address",
          "name": "owner",
          "type": "address"
        },
        {
          "internalType": "address",
          "name": "operator",
          "type": "address"
        }
      ],
      "name": "isApprovedForAll",
      "outputs": [
        {
          "internalType": "bool",
          "name": "",
          "type": "bool"
        }
      ],
      "stateMutability": "view",
      "type": "function"
    },
    {
      "inputs": [],
      "name": "name",
      "outputs": [
        {
          "internalType": "string",
          "name": "",
          "type": "string"
        }
      ],
      "stateMutability": "view",
      "type": "function"
    },
    {
      "inputs": [
        {
          "internalType": "uint256",
          "name": "tokenId",
          "type": "uint256"
        }
      ],
      "name": "ownerOf",
      "outputs": [
        {
          "internalType": "address",
          "name": "",
          "type": "address"
        }
      ],
      "stateMutability": "view",
      "type": "function"
    },
    {
      "inputs": [
        {
          "internalType": "bytes32",
          "name": "role",
          "type": "bytes32"
        },
        {
          "internalType": "address",
          "name": "account",
          "type": "address"
        }
      ],
      "name": "renounceRole",
      "outputs": [],
      "stateMutability": "nonpayable",
      "type": "function"
    },
    {
      "inputs": [
        {
          "internalType": "bytes32",
          "name": "role",
          "type": "bytes32"
        },
        {
          "internalType": "address",
          "name": "account",
          "type": "address"
        }
      ],
      "name": "revokeRole",
      "outputs": [],
      "stateMutability": "nonpayable",
      "type": "function"
    },
    {
      "inputs": [
        {
          "internalType": "address",
          "name": "to",
          "type": "address"
        }
      ],
      "name": "safeMint",
      "outputs": [],
      "stateMutability": "nonpayable",
      "type": "function"
    },
    {
      "inputs": [
        {
          "internalType": "address",
          "name": "from",
          "type": "address"
        },
        {
          "internalType": "address",
          "name": "to",
          "type": "address"
        },
        {
          "internalType": "uint256",
          "name": "tokenId",
          "type": "uint256"
        }
      ],
      "name": "safeTransferFrom",
      "outputs": [],
      "stateMutability": "nonpayable",
      "type": "function"
    },
    {
      "inputs": [
        {
          "internalType": "address",
          "name": "from",
          "type": "address"
        },
        {
          "internalType": "address",
          "name": "to",
          "type": "address"
        },
        {
          "internalType": "uint256",
          "name": "tokenId",
          "type": "uint256"
        },
        {
          "internalType": "bytes",
          "name": "data",
          "type": "bytes"
        }
      ],
      "name": "safeTransferFrom",
      "outputs": [],
      "stateMutability": "nonpayable",
      "type": "function"
    },
    {
      "inputs": [
        {
          "internalType": "address",
          "name": "operator",
          "type": "address"
        },
        {
          "internalType": "bool",
          "name": "approved",
          "type": "bool"
        }
      ],
      "name": "setApprovalForAll",
      "outputs": [],
      "stateMutability": "nonpayable",
      "type": "function"
    },
    {
      "inputs": [
        {
          "internalType": "bytes4",
          "name": "interfaceId",
          "type": "bytes4"
        }
      ],
      "name": "supportsInterface",
      "outputs": [
        {
          "internalType": "bool",
          "name": "",
          "type": "bool"
        }
      ],
      "stateMutability": "view",
      "type": "function"
    },
    {
      "inputs": [],
      "name": "symbol",
      "outputs": [
        {
          "internalType": "string",
          "name": "",
          "type": "string"
        }
      ],
      "stateMutability": "view",
      "type": "function"
    },
    {
      "inputs": [
        {
          "internalType": "uint256",
          "name": "tokenId",
          "type": "uint256"
        }
      ],
      "name": "tokenURI",
      "outputs": [
        {
          "internalType": "string",
          "name": "",
          "type": "string"
        }
      ],
      "stateMutability": "view",
      "type": "function"
    },
    {
      "inputs": [
        {
          "internalType": "address",
          "name": "from",
          "type": "address"
        },
        {
          "internalType": "address",
          "name": "to",
          "type": "address"
        },
        {
          "internalType": "uint256",
          "name": "tokenId",
          "type": "uint256"
        }
      ],
      "name": "transferFrom",
      "outputs": [],
      "stateMutability": "nonpayable",
      "type": "function"
    }
  ],
  "bytecode": "0x60806040523480156200001157600080fd5b506040518060400160405280600581526020017f4e4654656e0000000000000000000000000000000000000000000000000000008152506040518060400160405280600381526020017f54454e000000000000000000000000000000000000000000000000000000000081525081600090805190602001906200009692919062000264565b508060019080519060200190620000af92919062000264565b505050620000c76000801b33620000ff60201b60201c565b620000f97f9f2df0fed2c77648de5860a4cc508cd0818c85b8b8a1ab4ceeef8d981c8956a633620000ff60201b60201c565b62000379565b620001118282620001f160201b60201c565b620001ed5760016006600084815260200190815260200160002060000160008373ffffffffffffffffffffffffffffffffffffffff1673ffffffffffffffffffffffffffffffffffffffff16815260200190815260200160002060006101000a81548160ff021916908315150217905550620001926200025c60201b60201c565b73ffffffffffffffffffffffffffffffffffffffff168173ffffffffffffffffffffffffffffffffffffffff16837f2f8788117e7eff1d82e926ec794901d17c78024a50270940304540a733656f0d60405160405180910390a45b5050565b60006006600084815260200190815260200160002060000160008373ffffffffffffffffffffffffffffffffffffffff1673ffffffffffffffffffffffffffffffffffffffff16815260200190815260200160002060009054906101000a900460ff16905092915050565b600033905090565b828054620002729062000314565b90600052602060002090601f016020900481019282620002965760008555620002e2565b82601f10620002b157805160ff1916838001178555620002e2565b82800160010185558215620002e2579182015b82811115620002e1578251825591602001919060010190620002c4565b5b509050620002f19190620002f5565b5090565b5b8082111562000310576000816000905550600101620002f6565b5090565b600060028204905060018216806200032d57607f821691505b602082108114156200034457620003436200034a565b5b50919050565b7f4e487b7100000000000000000000000000000000000000000000000000000000600052602260045260246000fd5b6132d780620003896000396000f3fe608060405234801561001057600080fd5b50600436106101425760003560e01c80636352211e116100b8578063a22cb4651161007c578063a22cb46514610385578063b88d4fde146103a1578063c87b56dd146103bd578063d5391393146103ed578063d547741f1461040b578063e985e9c51461042757610142565b80636352211e146102b957806370a08231146102e957806391d148541461031957806395d89b4114610349578063a217fddf1461036757610142565b8063248a9ca31161010a578063248a9ca3146101fd5780632f2ff15d1461022d57806336568abe1461024957806340d097c31461026557806342842e0e1461028157806342966c681461029d57610142565b806301ffc9a71461014757806306fdde0314610177578063081812fc14610195578063095ea7b3146101c557806323b872dd146101e1575b600080fd5b610161600480360381019061015c9190612416565b610457565b60405161016e9190612842565b60405180910390f35b61017f610469565b60405161018c9190612878565b60405180910390f35b6101af60048036038101906101aa9190612468565b6104fb565b6040516101bc91906127db565b60405180910390f35b6101df60048036038101906101da9190612375565b610541565b005b6101fb60048036038101906101f6919061226f565b610659565b005b610217600480360381019061021291906123b1565b6106b9565b604051610224919061285d565b60405180910390f35b610247600480360381019061024291906123da565b6106d9565b005b610263600480360381019061025e91906123da565b6106fa565b005b61027f600480360381019061027a919061220a565b61077d565b005b61029b6004803603810190610296919061226f565b6107ce565b005b6102b760048036038101906102b29190612468565b6107ee565b005b6102d360048036038101906102ce9190612468565b61084a565b6040516102e091906127db565b60405180910390f35b61030360048036038101906102fe919061220a565b6108fc565b6040516103109190612a3a565b60405180910390f35b610333600480360381019061032e91906123da565b6109b4565b6040516103409190612842565b60405180910390f35b610351610a1f565b60405161035e9190612878565b60405180910390f35b61036f610ab1565b60405161037c919061285d565b60405180910390f35b61039f600480360381019061039a9190612339565b610ab8565b005b6103bb60048036038101906103b691906122be565b610ace565b005b6103d760048036038101906103d29190612468565b610b30565b6040516103e49190612878565b60405180910390f35b6103f5610b98565b604051610402919061285d565b60405180910390f35b610425600480360381019061042091906123da565b610bbc565b005b610441600480360381019061043c9190612233565b610bdd565b60405161044e9190612842565b60405180910390f35b600061046282610c71565b9050919050565b60606000805461047890612ced565b80601f01602080910402602001604051908101604052809291908181526020018280546104a490612ced565b80156104f15780601f106104c6576101008083540402835291602001916104f1565b820191906000526020600020905b8154815290600101906020018083116104d457829003601f168201915b5050505050905090565b600061050682610ceb565b6004600083815260200190815260200160002060009054906101000a900473ffffffffffffffffffffffffffffffffffffffff169050919050565b600061054c8261084a565b90508073ffffffffffffffffffffffffffffffffffffffff168373ffffffffffffffffffffffffffffffffffffffff1614156105bd576040517f08c379a00000000000000000000000000000000000000000000000000000000081526004016105b4906129da565b60405180910390fd5b8073ffffffffffffffffffffffffffffffffffffffff166105dc610d36565b73ffffffffffffffffffffffffffffffffffffffff16148061060b575061060a81610605610d36565b610bdd565b5b61064a576040517f08c379a00000000000000000000000000000000000000000000000000000000081526004016106419061297a565b60405180910390fd5b6106548383610d3e565b505050565b61066a610664610d36565b82610df7565b6106a9576040517f08c379a00000000000000000000000000000000000000000000000000000000081526004016106a0906129fa565b60405180910390fd5b6106b4838383610e8c565b505050565b600060066000838152602001908152602001600020600101549050919050565b6106e2826106b9565b6106eb816110f3565b6106f58383611107565b505050565b610702610d36565b73ffffffffffffffffffffffffffffffffffffffff168173ffffffffffffffffffffffffffffffffffffffff161461076f576040517f08c379a000000000000000000000000000000000000000000000000000000000815260040161076690612a1a565b60405180910390fd5b61077982826111e8565b5050565b7f9f2df0fed2c77648de5860a4cc508cd0818c85b8b8a1ab4ceeef8d981c8956a66107a7816110f3565b60006107b360076112ca565b90506107bf60076112d8565b6107c983826112ee565b505050565b6107e983838360405180602001604052806000815250610ace565b505050565b6107ff6107f9610d36565b82610df7565b61083e576040517f08c379a0000000000000000000000000000000000000000000000000000000008152600401610835906129fa565b60405180910390fd5b6108478161130c565b50565b6000806002600084815260200190815260200160002060009054906101000a900473ffffffffffffffffffffffffffffffffffffffff169050600073ffffffffffffffffffffffffffffffffffffffff168173ffffffffffffffffffffffffffffffffffffffff1614156108f3576040517f08c379a00000000000000000000000000000000000000000000000000000000081526004016108ea906129ba565b60405180910390fd5b80915050919050565b60008073ffffffffffffffffffffffffffffffffffffffff168273ffffffffffffffffffffffffffffffffffffffff16141561096d576040517f08c379a00000000000000000000000000000000000000000000000000000000081526004016109649061295a565b60405180910390fd5b600360008373ffffffffffffffffffffffffffffffffffffffff1673ffffffffffffffffffffffffffffffffffffffff168152602001908152602001600020549050919050565b60006006600084815260200190815260200160002060000160008373ffffffffffffffffffffffffffffffffffffffff1673ffffffffffffffffffffffffffffffffffffffff16815260200190815260200160002060009054906101000a900460ff16905092915050565b606060018054610a2e90612ced565b80601f0160208091040260200160405190810160405280929190818152602001828054610a5a90612ced565b8015610aa75780601f10610a7c57610100808354040283529160200191610aa7565b820191906000526020600020905b815481529060010190602001808311610a8a57829003601f168201915b5050505050905090565b6000801b81565b610aca610ac3610d36565b8383611429565b5050565b610adf610ad9610d36565b83610df7565b610b1e576040517f08c379a0000000000000000000000000000000000000000000000000000000008152600401610b15906129fa565b60405180910390fd5b610b2a84848484611596565b50505050565b6060610b3b82610ceb565b6000610b456115f2565b90506000815111610b655760405180602001604052806000815250610b90565b80610b6f8461162f565b604051602001610b8092919061277d565b6040516020818303038152906040525b915050919050565b7f9f2df0fed2c77648de5860a4cc508cd0818c85b8b8a1ab4ceeef8d981c8956a681565b610bc5826106b9565b610bce816110f3565b610bd883836111e8565b505050565b6000600560008473ffffffffffffffffffffffffffffffffffffffff1673ffffffffffffffffffffffffffffffffffffffff16815260200190815260200160002060008373ffffffffffffffffffffffffffffffffffffffff1673ffffffffffffffffffffffffffffffffffffffff16815260200190815260200160002060009054906101000a900460ff16905092915050565b60007f7965db0b000000000000000000000000000000000000000000000000000000007bffffffffffffffffffffffffffffffffffffffffffffffffffffffff1916827bffffffffffffffffffffffffffffffffffffffffffffffffffffffff19161480610ce45750610ce3826117dc565b5b9050919050565b610cf4816118be565b610d33576040517f08c379a0000000000000000000000000000000000000000000000000000000008152600401610d2a906129ba565b60405180910390fd5b50565b600033905090565b816004600083815260200190815260200160002060006101000a81548173ffffffffffffffffffffffffffffffffffffffff021916908373ffffffffffffffffffffffffffffffffffffffff160217905550808273ffffffffffffffffffffffffffffffffffffffff16610db18361084a565b73ffffffffffffffffffffffffffffffffffffffff167f8c5be1e5ebec7d5bd14f71427d1e84f3dd0314c0f7b2291e5b200ac8c7c3b92560405160405180910390a45050565b600080610e038361084a565b90508073ffffffffffffffffffffffffffffffffffffffff168473ffffffffffffffffffffffffffffffffffffffff161480610e455750610e448185610bdd565b5b80610e8357508373ffffffffffffffffffffffffffffffffffffffff16610e6b846104fb565b73ffffffffffffffffffffffffffffffffffffffff16145b91505092915050565b8273ffffffffffffffffffffffffffffffffffffffff16610eac8261084a565b73ffffffffffffffffffffffffffffffffffffffff1614610f02576040517f08c379a0000000000000000000000000000000000000000000000000000000008152600401610ef9906128da565b60405180910390fd5b600073ffffffffffffffffffffffffffffffffffffffff168273ffffffffffffffffffffffffffffffffffffffff161415610f72576040517f08c379a0000000000000000000000000000000000000000000000000000000008152600401610f699061291a565b60405180910390fd5b610f7d83838361192a565b610f88600082610d3e565b6001600360008573ffffffffffffffffffffffffffffffffffffffff1673ffffffffffffffffffffffffffffffffffffffff1681526020019081526020016000206000828254610fd89190612bcf565b925050819055506001600360008473ffffffffffffffffffffffffffffffffffffffff1673ffffffffffffffffffffffffffffffffffffffff168152602001908152602001600020600082825461102f9190612aee565b92505081905550816002600083815260200190815260200160002060006101000a81548173ffffffffffffffffffffffffffffffffffffffff021916908373ffffffffffffffffffffffffffffffffffffffff160217905550808273ffffffffffffffffffffffffffffffffffffffff168473ffffffffffffffffffffffffffffffffffffffff167fddf252ad1be2c89b69c2b068fc378daa952ba7f163c4a11628f55a4df523b3ef60405160405180910390a46110ee83838361192f565b505050565b611104816110ff610d36565b611934565b50565b61111182826109b4565b6111e45760016006600084815260200190815260200160002060000160008373ffffffffffffffffffffffffffffffffffffffff1673ffffffffffffffffffffffffffffffffffffffff16815260200190815260200160002060006101000a81548160ff021916908315150217905550611189610d36565b73ffffffffffffffffffffffffffffffffffffffff168173ffffffffffffffffffffffffffffffffffffffff16837f2f8788117e7eff1d82e926ec794901d17c78024a50270940304540a733656f0d60405160405180910390a45b5050565b6111f282826109b4565b156112c65760006006600084815260200190815260200160002060000160008373ffffffffffffffffffffffffffffffffffffffff1673ffffffffffffffffffffffffffffffffffffffff16815260200190815260200160002060006101000a81548160ff02191690831515021790555061126b610d36565b73ffffffffffffffffffffffffffffffffffffffff168173ffffffffffffffffffffffffffffffffffffffff16837ff6391f5c32d9c69d2a47ea670b442974b53935d1edc7fd64eb21e047a839171b60405160405180910390a45b5050565b600081600001549050919050565b6001816000016000828254019250508190555050565b6113088282604051806020016040528060008152506119d1565b5050565b60006113178261084a565b90506113258160008461192a565b611330600083610d3e565b6001600360008373ffffffffffffffffffffffffffffffffffffffff1673ffffffffffffffffffffffffffffffffffffffff16815260200190815260200160002060008282546113809190612bcf565b925050819055506002600083815260200190815260200160002060006101000a81549073ffffffffffffffffffffffffffffffffffffffff021916905581600073ffffffffffffffffffffffffffffffffffffffff168273ffffffffffffffffffffffffffffffffffffffff167fddf252ad1be2c89b69c2b068fc378daa952ba7f163c4a11628f55a4df523b3ef60405160405180910390a46114258160008461192f565b5050565b8173ffffffffffffffffffffffffffffffffffffffff168373ffffffffffffffffffffffffffffffffffffffff161415611498576040517f08c379a000000000000000000000000000000000000000000000000000000000815260040161148f9061293a565b60405180910390fd5b80600560008573ffffffffffffffffffffffffffffffffffffffff1673ffffffffffffffffffffffffffffffffffffffff16815260200190815260200160002060008473ffffffffffffffffffffffffffffffffffffffff1673ffffffffffffffffffffffffffffffffffffffff16815260200190815260200160002060006101000a81548160ff0219169083151502179055508173ffffffffffffffffffffffffffffffffffffffff168373ffffffffffffffffffffffffffffffffffffffff167f17307eab39ab6107e8899845ad3d59bd9653f200f220920489ca2b5937696c31836040516115899190612842565b60405180910390a3505050565b6115a1848484610e8c565b6115ad84848484611a2c565b6115ec576040517f08c379a00000000000000000000000000000000000000000000000000000000081526004016115e3906128ba565b60405180910390fd5b50505050565b60606040518060400160405280602081526020017f687474703a2f2f6c6f63616c686f73743a333030302f6170692f6e6674656e2f815250905090565b60606000821415611677576040518060400160405280600181526020017f300000000000000000000000000000000000000000000000000000000000000081525090506117d7565b600082905060005b600082146116a957808061169290612d50565b915050600a826116a29190612b44565b915061167f565b60008167ffffffffffffffff8111156116eb577f4e487b7100000000000000000000000000000000000000000000000000000000600052604160045260246000fd5b6040519080825280601f01601f19166020018201604052801561171d5781602001600182028036833780820191505090505b5090505b600085146117d0576001826117369190612bcf565b9150600a856117459190612d99565b60306117519190612aee565b60f81b81838151811061178d577f4e487b7100000000000000000000000000000000000000000000000000000000600052603260045260246000fd5b60200101907effffffffffffffffffffffffffffffffffffffffffffffffffffffffffffff1916908160001a905350600a856117c99190612b44565b9450611721565b8093505050505b919050565b60007f80ac58cd000000000000000000000000000000000000000000000000000000007bffffffffffffffffffffffffffffffffffffffffffffffffffffffff1916827bffffffffffffffffffffffffffffffffffffffffffffffffffffffff191614806118a757507f5b5e139f000000000000000000000000000000000000000000000000000000007bffffffffffffffffffffffffffffffffffffffffffffffffffffffff1916827bffffffffffffffffffffffffffffffffffffffffffffffffffffffff1916145b806118b757506118b682611bc3565b5b9050919050565b60008073ffffffffffffffffffffffffffffffffffffffff166002600084815260200190815260200160002060009054906101000a900473ffffffffffffffffffffffffffffffffffffffff1673ffffffffffffffffffffffffffffffffffffffff1614159050919050565b505050565b505050565b61193e82826109b4565b6119cd576119638173ffffffffffffffffffffffffffffffffffffffff166014611c2d565b6119718360001c6020611c2d565b6040516020016119829291906127a1565b6040516020818303038152906040526040517f08c379a00000000000000000000000000000000000000000000000000000000081526004016119c49190612878565b60405180910390fd5b5050565b6119db8383611f27565b6119e86000848484611a2c565b611a27576040517f08c379a0000000000000000000000000000000000000000000000000000000008152600401611a1e906128ba565b60405180910390fd5b505050565b6000611a4d8473ffffffffffffffffffffffffffffffffffffffff16612101565b15611bb6578373ffffffffffffffffffffffffffffffffffffffff1663150b7a02611a76610d36565b8786866040518563ffffffff1660e01b8152600401611a9894939291906127f6565b602060405180830381600087803b158015611ab257600080fd5b505af1925050508015611ae357506040513d601f19601f82011682018060405250810190611ae0919061243f565b60015b611b66573d8060008114611b13576040519150601f19603f3d011682016040523d82523d6000602084013e611b18565b606091505b50600081511415611b5e576040517f08c379a0000000000000000000000000000000000000000000000000000000008152600401611b55906128ba565b60405180910390fd5b805181602001fd5b63150b7a0260e01b7bffffffffffffffffffffffffffffffffffffffffffffffffffffffff1916817bffffffffffffffffffffffffffffffffffffffffffffffffffffffff191614915050611bbb565b600190505b949350505050565b60007f01ffc9a7000000000000000000000000000000000000000000000000000000007bffffffffffffffffffffffffffffffffffffffffffffffffffffffff1916827bffffffffffffffffffffffffffffffffffffffffffffffffffffffff1916149050919050565b606060006002836002611c409190612b75565b611c4a9190612aee565b67ffffffffffffffff811115611c89577f4e487b7100000000000000000000000000000000000000000000000000000000600052604160045260246000fd5b6040519080825280601f01601f191660200182016040528015611cbb5781602001600182028036833780820191505090505b5090507f300000000000000000000000000000000000000000000000000000000000000081600081518110611d19577f4e487b7100000000000000000000000000000000000000000000000000000000600052603260045260246000fd5b60200101907effffffffffffffffffffffffffffffffffffffffffffffffffffffffffffff1916908160001a9053507f780000000000000000000000000000000000000000000000000000000000000081600181518110611da3577f4e487b7100000000000000000000000000000000000000000000000000000000600052603260045260246000fd5b60200101907effffffffffffffffffffffffffffffffffffffffffffffffffffffffffffff1916908160001a90535060006001846002611de39190612b75565b611ded9190612aee565b90505b6001811115611ed9577f3031323334353637383961626364656600000000000000000000000000000000600f861660108110611e55577f4e487b7100000000000000000000000000000000000000000000000000000000600052603260045260246000fd5b1a60f81b828281518110611e92577f4e487b7100000000000000000000000000000000000000000000000000000000600052603260045260246000fd5b60200101907effffffffffffffffffffffffffffffffffffffffffffffffffffffffffffff1916908160001a905350600485901c945080611ed290612cc3565b9050611df0565b5060008414611f1d576040517f08c379a0000000000000000000000000000000000000000000000000000000008152600401611f149061289a565b60405180910390fd5b8091505092915050565b600073ffffffffffffffffffffffffffffffffffffffff168273ffffffffffffffffffffffffffffffffffffffff161415611f97576040517f08c379a0000000000000000000000000000000000000000000000000000000008152600401611f8e9061299a565b60405180910390fd5b611fa0816118be565b15611fe0576040517f08c379a0000000000000000000000000000000000000000000000000000000008152600401611fd7906128fa565b60405180910390fd5b611fec6000838361192a565b6001600360008473ffffffffffffffffffffffffffffffffffffffff1673ffffffffffffffffffffffffffffffffffffffff168152602001908152602001600020600082825461203c9190612aee565b92505081905550816002600083815260200190815260200160002060006101000a81548173ffffffffffffffffffffffffffffffffffffffff021916908373ffffffffffffffffffffffffffffffffffffffff160217905550808273ffffffffffffffffffffffffffffffffffffffff16600073ffffffffffffffffffffffffffffffffffffffff167fddf252ad1be2c89b69c2b068fc378daa952ba7f163c4a11628f55a4df523b3ef60405160405180910390a46120fd6000838361192f565b5050565b6000808273ffffffffffffffffffffffffffffffffffffffff163b119050919050565b600061213761213284612a7a565b612a55565b90508281526020810184848401111561214f57600080fd5b61215a848285612c81565b509392505050565b6000813590506121718161322e565b92915050565b60008135905061218681613245565b92915050565b60008135905061219b8161325c565b92915050565b6000813590506121b081613273565b92915050565b6000815190506121c581613273565b92915050565b600082601f8301126121dc57600080fd5b81356121ec848260208601612124565b91505092915050565b6000813590506122048161328a565b92915050565b60006020828403121561221c57600080fd5b600061222a84828501612162565b91505092915050565b6000806040838503121561224657600080fd5b600061225485828601612162565b925050602061226585828601612162565b9150509250929050565b60008060006060848603121561228457600080fd5b600061229286828701612162565b93505060206122a386828701612162565b92505060406122b4868287016121f5565b9150509250925092565b600080600080608085870312156122d457600080fd5b60006122e287828801612162565b94505060206122f387828801612162565b9350506040612304878288016121f5565b925050606085013567ffffffffffffffff81111561232157600080fd5b61232d878288016121cb565b91505092959194509250565b6000806040838503121561234c57600080fd5b600061235a85828601612162565b925050602061236b85828601612177565b9150509250929050565b6000806040838503121561238857600080fd5b600061239685828601612162565b92505060206123a7858286016121f5565b9150509250929050565b6000602082840312156123c357600080fd5b60006123d18482850161218c565b91505092915050565b600080604083850312156123ed57600080fd5b60006123fb8582860161218c565b925050602061240c85828601612162565b9150509250929050565b60006020828403121561242857600080fd5b6000612436848285016121a1565b91505092915050565b60006020828403121561245157600080fd5b600061245f848285016121b6565b91505092915050565b60006020828403121561247a57600080fd5b6000612488848285016121f5565b91505092915050565b61249a81612c03565b82525050565b6124a981612c15565b82525050565b6124b881612c21565b82525050565b60006124c982612aab565b6124d38185612ac1565b93506124e3818560208601612c90565b6124ec81612e86565b840191505092915050565b600061250282612ab6565b61250c8185612ad2565b935061251c818560208601612c90565b61252581612e86565b840191505092915050565b600061253b82612ab6565b6125458185612ae3565b9350612555818560208601612c90565b80840191505092915050565b600061256e602083612ad2565b915061257982612e97565b602082019050919050565b6000612591603283612ad2565b915061259c82612ec0565b604082019050919050565b60006125b4602583612ad2565b91506125bf82612f0f565b604082019050919050565b60006125d7601c83612ad2565b91506125e282612f5e565b602082019050919050565b60006125fa602483612ad2565b915061260582612f87565b604082019050919050565b600061261d601983612ad2565b915061262882612fd6565b602082019050919050565b6000612640602983612ad2565b915061264b82612fff565b604082019050919050565b6000612663603e83612ad2565b915061266e8261304e565b604082019050919050565b6000612686602083612ad2565b91506126918261309d565b602082019050919050565b60006126a9601883612ad2565b91506126b4826130c6565b602082019050919050565b60006126cc602183612ad2565b91506126d7826130ef565b604082019050919050565b60006126ef601783612ae3565b91506126fa8261313e565b601782019050919050565b6000612712602e83612ad2565b915061271d82613167565b604082019050919050565b6000612735601183612ae3565b9150612740826131b6565b601182019050919050565b6000612758602f83612ad2565b9150612763826131df565b604082019050919050565b61277781612c77565b82525050565b60006127898285612530565b91506127958284612530565b91508190509392505050565b60006127ac826126e2565b91506127b88285612530565b91506127c382612728565b91506127cf8284612530565b91508190509392505050565b60006020820190506127f06000830184612491565b92915050565b600060808201905061280b6000830187612491565b6128186020830186612491565b612825604083018561276e565b818103606083015261283781846124be565b905095945050505050565b600060208201905061285760008301846124a0565b92915050565b600060208201905061287260008301846124af565b92915050565b6000602082019050818103600083015261289281846124f7565b905092915050565b600060208201905081810360008301526128b381612561565b9050919050565b600060208201905081810360008301526128d381612584565b9050919050565b600060208201905081810360008301526128f3816125a7565b9050919050565b60006020820190508181036000830152612913816125ca565b9050919050565b60006020820190508181036000830152612933816125ed565b9050919050565b6000602082019050818103600083015261295381612610565b9050919050565b6000602082019050818103600083015261297381612633565b9050919050565b6000602082019050818103600083015261299381612656565b9050919050565b600060208201905081810360008301526129b381612679565b9050919050565b600060208201905081810360008301526129d38161269c565b9050919050565b600060208201905081810360008301526129f3816126bf565b9050919050565b60006020820190508181036000830152612a1381612705565b9050919050565b60006020820190508181036000830152612a338161274b565b9050919050565b6000602082019050612a4f600083018461276e565b92915050565b6000612a5f612a70565b9050612a6b8282612d1f565b919050565b6000604051905090565b600067ffffffffffffffff821115612a9557612a94612e57565b5b612a9e82612e86565b9050602081019050919050565b600081519050919050565b600081519050919050565b600082825260208201905092915050565b600082825260208201905092915050565b600081905092915050565b6000612af982612c77565b9150612b0483612c77565b9250827fffffffffffffffffffffffffffffffffffffffffffffffffffffffffffffffff03821115612b3957612b38612dca565b5b828201905092915050565b6000612b4f82612c77565b9150612b5a83612c77565b925082612b6a57612b69612df9565b5b828204905092915050565b6000612b8082612c77565b9150612b8b83612c77565b9250817fffffffffffffffffffffffffffffffffffffffffffffffffffffffffffffffff0483118215151615612bc457612bc3612dca565b5b828202905092915050565b6000612bda82612c77565b9150612be583612c77565b925082821015612bf857612bf7612dca565b5b828203905092915050565b6000612c0e82612c57565b9050919050565b60008115159050919050565b6000819050919050565b60007fffffffff0000000000000000000000000000000000000000000000000000000082169050919050565b600073ffffffffffffffffffffffffffffffffffffffff82169050919050565b6000819050919050565b82818337600083830152505050565b60005b83811015612cae578082015181840152602081019050612c93565b83811115612cbd576000848401525b50505050565b6000612cce82612c77565b91506000821415612ce257612ce1612dca565b5b600182039050919050565b60006002820490506001821680612d0557607f821691505b60208210811415612d1957612d18612e28565b5b50919050565b612d2882612e86565b810181811067ffffffffffffffff82111715612d4757612d46612e57565b5b80604052505050565b6000612d5b82612c77565b91507fffffffffffffffffffffffffffffffffffffffffffffffffffffffffffffffff821415612d8e57612d8d612dca565b5b600182019050919050565b6000612da482612c77565b9150612daf83612c77565b925082612dbf57612dbe612df9565b5b828206905092915050565b7f4e487b7100000000000000000000000000000000000000000000000000000000600052601160045260246000fd5b7f4e487b7100000000000000000000000000000000000000000000000000000000600052601260045260246000fd5b7f4e487b7100000000000000000000000000000000000000000000000000000000600052602260045260246000fd5b7f4e487b7100000000000000000000000000000000000000000000000000000000600052604160045260246000fd5b6000601f19601f8301169050919050565b7f537472696e67733a20686578206c656e67746820696e73756666696369656e74600082015250565b7f4552433732313a207472616e7366657220746f206e6f6e20455243373231526560008201527f63656976657220696d706c656d656e7465720000000000000000000000000000602082015250565b7f4552433732313a207472616e736665722066726f6d20696e636f72726563742060008201527f6f776e6572000000000000000000000000000000000000000000000000000000602082015250565b7f4552433732313a20746f6b656e20616c7265616479206d696e74656400000000600082015250565b7f4552433732313a207472616e7366657220746f20746865207a65726f2061646460008201527f7265737300000000000000000000000000000000000000000000000000000000602082015250565b7f4552433732313a20617070726f766520746f2063616c6c657200000000000000600082015250565b7f4552433732313a2061646472657373207a65726f206973206e6f74206120766160008201527f6c6964206f776e65720000000000000000000000000000000000000000000000602082015250565b7f4552433732313a20617070726f76652063616c6c6572206973206e6f7420746f60008201527f6b656e206f776e6572206e6f7220617070726f76656420666f7220616c6c0000602082015250565b7f4552433732313a206d696e7420746f20746865207a65726f2061646472657373600082015250565b7f4552433732313a20696e76616c696420746f6b656e2049440000000000000000600082015250565b7f4552433732313a20617070726f76616c20746f2063757272656e74206f776e6560008201527f7200000000000000000000000000000000000000000000000000000000000000602082015250565b7f416363657373436f6e74726f6c3a206163636f756e7420000000000000000000600082015250565b7f4552433732313a2063616c6c6572206973206e6f7420746f6b656e206f776e6560008201527f72206e6f7220617070726f766564000000000000000000000000000000000000602082015250565b7f206973206d697373696e6720726f6c6520000000000000000000000000000000600082015250565b7f416363657373436f6e74726f6c3a2063616e206f6e6c792072656e6f756e636560008201527f20726f6c657320666f722073656c660000000000000000000000000000000000602082015250565b61323781612c03565b811461324257600080fd5b50565b61324e81612c15565b811461325957600080fd5b50565b61326581612c21565b811461327057600080fd5b50565b61327c81612c2b565b811461328757600080fd5b50565b61329381612c77565b811461329e57600080fd5b5056fea2646970667358221220afb6af4eb8bf00293504b44d3db28b8a9959525284d06d97c0f83cd2ef94baf764736f6c63430008040033",
  "linkReferences": {},
  "deployedLinkReferences": {}
}